:040000008031C7285C
:100008007E14803120007F08F600F8012700950152
:1000180015280130F0007008F8071030890B1228F5
:10002800003220008D1B1C28C8307802031C0D28C4
:10003800C83078020318BF2887307802031CBF280D
:10004800F8012E280130F0007008F8071030890BED
:100058002B28003220008D1F352864307802031CBD
:100068002628663078020318BF283C307802031C23
:10007800BF28F701203077020318BF28F8014C2861
:100088000130F0007008F8071030890B4928003259
:1000980020008D1B53280F307802031C44280F3092
:1000A80078020318C22805307802031CC228F80118
:1000B80065280130F0007008F8071030890B6228B5
:1000C800003220008D1F6C2828307802031C5D2820
:1000D800293078020318BF2805307802031CBF288E
:1000E8001A307802031C98280130F0000030F10023
:1000F8007703FF3A1F3E890A8328F035F10D890BF3
:1001080081287008F2007108F3000030F31BFF30FB
:10011800F400F50072082000C1047308C2047408D2
:10012800C3047508C404B7287703FF3A1F3E890A39
:10013800F001F101A128F035F10D890B9F28F00994
:10014800F1097008F2007108F3000030F31BFF306A
:10015800F400F50072082000C1057308C205740890
:10016800C3057508C4050130F0007008F707203092
:100178007702031C4228270096019517760820006D
:10018800FF007E1009008031C928F901FA01FB013E
:10019800FC012000C101C201C301C401C501C6019F
:1001A800C701C801C901CA01CB01CC017E102000DA
:1001B8008031DE288331502380318331D923803147
:1001C8008B1706302000BC001330BB00AD30890B04
:1001D800EB28BB0BEB28BC0BEB28003220008C165D
:1001E8000C1506302000BC001330BB00AD30890B65
:1001F800FB28BB0BFB28BC0BFB280032EA30200095
:10020800A8008330A9004408AD004308AC004208A8
:10021800AB004108AA008131B62180312000440892
:10022800430442044104031930294408C000430828
:10023800BF004208BE004108BD00F530A800833069
:10024800A9004008AD003F08AC003E08AB003D08DF
:10025800AA008131B621803100302000C40000306E
:10026800C3000030C2000030C100CF303D0630303E
:1002780003193E063F044004031D462982315922D2
:100288008031F528E73020003D06183003193E0676
:100298003F044004031D54298331C7238031F528C6
:1002A800853020003D067A3003193E063F0440049D
:1002B800031D62298331B5238031F528EF302000F2
:1002C8003D06103003193E063F044004031D702903
:1002D8008331A3238031F528C73020003D0638300C
:1002E80003193E063F044004031D7E2983312F2352
:1002F8008031F528A53020003D065A3003193E0606
:100308003F044004031D8C2983310E238031F528D6
:10031800BD3020003D06423003193E063F0440042C
:10032800031D9A298231ED228031F528B53020004D
:100338003D064A3003193E063F044004031DA82920
:10034800833170238031F528AD3020003D065230CE
:1003580003193E063F044004031DF528843109248F
:100368008031F5282A302000AE002E08B400200085
:100378002908AF002808AE00A80A0319A90A2E0800
:1003880084002F0885000008B0003008B80038083D
:1003980003190800253038060319D729380884318D
:1003A80001248131BB292000B2012908AF002808A7
:1003B800AE00A80A0319A90A2E0884002F08850090
:1003C8000008B800003A0319582A583A0319F029C6
:1003D800203A0319F029BB29340886008701403FD9
:1003E800B500413FB6000230AE002E08B407B80190
:1003F800B80A043038060319202A3808AE00AF01BD
:10040800AE35AF0D8A302E07840083302F3D85002E
:10041800003FB000013FB10031083602031D162A23
:1004280030083502031C202A0130AE002E08B80718
:1004380004303806031D012A3808AE002E08B7001C
:10044800FF302000AE002E08B707370A0319BB2972
:100458003708AE00AF01AE35AF0D8A302E078400E5
:1004680083302F3D8500003FA000013FA1003608E2
:10047800A3003508A2008231B8228131200020086B
:100488000F39B0003008B3003308923E840083303F
:100498000318013E85000008AE002E08B800380891
:1004A800843101248131242A080020000E108E1086
:1004B8000E1102302000A1004530A000A930890BA0
:1004C800632AA00B632AA10B632A003220000E14B2
:1004D80002302000A1004530A000A930890B722A03
:1004E800A00B722AA10B722A003220008E1402304F
:1004F8002000A1004530A000A930890B812AA00B5B
:10050800812AA10B812A003220000E15023020001A
:10051800A1004530A000A930890B902AA00B902A91
:10052800A10B902A003220000E1002302000A100FA
:100538004530A000A930890B9F2AA00B9F2AA10B48
:100548009F2A003220008E1002302000A100453082
:10055800A000A930890BAE2AA00BAE2AA10BAE2AA7
:10056800003220000E1108002000A501A601200875
:1005780021040319E82AA701A70AA11BCD2A0130E3
:10058800A035A10D890BC42A0130A4002408A707AF
:10059800C12A0130A535A60D890BCE2A21082302D0
:1005A800031DD82A20082202031CDF2A2008A202E1
:1005B8002108A33B25140130A136A00C890BE02AA1
:1005C8000130A702031DCD2A2608A1002508A00096
:1005D800080020000E108E100E1102302000A1001D
:1005E8004530A000A930890BF72AA00BF72AA10BE8
:1005F800F72A003220000E1502302000A1004530F5
:10060800A000A930890B062BA00B062BA10B062BEB
:100618000032080020000E108E100E11023020004B
:10062800A1004530A000A930890B182BA00B182B6E
:10063800A10B182B003220008E1402302000A100DC
:100648004530A000A930890B272BA00B272BA10B25
:10065800272B0032080020000E108E100E110230D9
:100668002000A1004530A000A930890B392BA00B30
:10067800392BA10B392B003220000E140230200038
:10068800A1004530A000A930890B482BA00B482BAE
:10069800A10B482B003208006A3021009900220083
:1006A8001D159D17103021008C00103023008C0080
:1006B800083021008E00FF3023008E008D01F030BD
:1006C80021008D0023008D0124008D0108308B004E
:1006D8002700960195170800F8302000A8008330FD
:1006E800A9008131B621833102302000BA0045309B
:1006F800B900A930890B7E2BB90B7E2BBA0B7E2B48
:10070800003220000E148E140E1508000134003437
:1007180010340034003401340034103430343134AF
:100728003234333434343534363437343834393475
:100738004134423443344434453446340034200090
:100748000E108E100E1502302000A1004530A000BA
:10075800A930890BAD2BA00BAD2BA10BAD2B003213
:10076800080020000E108E140E1102302000A10087
:100778004530A000A930890BBF2BA00BBF2BA10BC4
:10078800BF2B0032080020000E148E100E1102300C
:100798002000A1004530A000A930890BD12BA00B67
:1007A800D12BA10BD12B0032080021008E160E167A
:1007B800003023009C0019309B0090309D002430AD
:1007C8009E009E161E129D171E150800463475348D
:1007D8006C346C34203463346F34643465343A34A4
:1007E800203425345834003470346134743474340B
:1007F800653472346E34383400342000A000111E81
:10080800032C200823009A00080020000E108E10E8
:040818000E110800B5
:020000040001F9
:04000E00E4C9FFFE44
:00000001FF
